{
  "_format": "hh3-artifact-1",
  "contractName": "CrowdFunding",
  "sourceName": "contracts/CrowdFunding.sol",
  "abi": [
    {
      "anonymous": false,
      "inputs": [
        {
          "indexed": true,
          "internalType": "uint256",
          "name": "campaignId",
          "type": "uint256"
        },
        {
          "indexed": true,
          "internalType": "address",
          "name": "creator",
          "type": "address"
        },
        {
          "indexed": false,
          "internalType": "string",
          "name": "title",
          "type": "string"
        },
        {
          "indexed": false,
          "internalType": "uint256",
          "name": "goal",
          "type": "uint256"
        },
        {
          "indexed": false,
          "internalType": "uint256",
          "name": "deadline",
          "type": "uint256"
        }
      ],
      "name": "CampaignCreated",
      "type": "event"
    },
    {
      "anonymous": false,
      "inputs": [
        {
          "indexed": true,
          "internalType": "uint256",
          "name": "campaignId",
          "type": "uint256"
        },
        {
          "indexed": true,
          "internalType": "address",
          "name": "",
          "type": "address"
        },
        {
          "indexed": false,
          "internalType": "uint256",
          "name": "amount",
          "type": "uint256"
        }
      ],
      "name": "ContributionMade",
      "type": "event"
    },
    {
      "anonymous": false,
      "inputs": [
        {
          "indexed": true,
          "internalType": "uint256",
          "name": "campaignId",
          "type": "uint256"
        },
        {
          "indexed": true,
          "internalType": "address",
          "name": "creator",
          "type": "address"
        },
        {
          "indexed": false,
          "internalType": "uint256",
          "name": "amount",
          "type": "uint256"
        }
      ],
      "name": "FundsWithdrawn",
      "type": "event"
    },
    {
      "anonymous": false,
      "inputs": [
        {
          "indexed": true,
          "internalType": "uint256",
          "name": "campaignId",
          "type": "uint256"
        },
        {
          "indexed": true,
          "internalType": "address",
          "name": "contributor",
          "type": "address"
        },
        {
          "indexed": false,
          "internalType": "uint256",
          "name": "amount",
          "type": "uint256"
        }
      ],
      "name": "RefundIssued",
      "type": "event"
    },
    {
      "inputs": [],
      "name": "campaignCount",
      "outputs": [
        {
          "internalType": "uint256",
          "name": "",
          "type": "uint256"
        }
      ],
      "stateMutability": "view",
      "type": "function"
    },
    {
      "inputs": [
        {
          "internalType": "uint256",
          "name": "",
          "type": "uint256"
        }
      ],
      "name": "campaigns",
      "outputs": [
        {
          "internalType": "address",
          "name": "creator",
          "type": "address"
        },
        {
          "internalType": "string",
          "name": "title",
          "type": "string"
        },
        {
          "internalType": "string",
          "name": "description",
          "type": "string"
        },
        {
          "internalType": "uint256",
          "name": "goal",
          "type": "uint256"
        },
        {
          "internalType": "uint256",
          "name": "deadline",
          "type": "uint256"
        },
        {
          "internalType": "uint256",
          "name": "amountRaised",
          "type": "uint256"
        },
        {
          "internalType": "bool",
          "name": "withdrawn",
          "type": "bool"
        }
      ],
      "stateMutability": "view",
      "type": "function"
    },
    {
      "inputs": [
        {
          "internalType": "uint256",
          "name": "_campaignId",
          "type": "uint256"
        }
      ],
      "name": "contribute",
      "outputs": [],
      "stateMutability": "payable",
      "type": "function"
    },
    {
      "inputs": [
        {
          "internalType": "string",
          "name": "_title",
          "type": "string"
        },
        {
          "internalType": "string",
          "name": "_description",
          "type": "string"
        },
        {
          "internalType": "uint256",
          "name": "_goal",
          "type": "uint256"
        },
        {
          "internalType": "uint256",
          "name": "_durationInDays",
          "type": "uint256"
        }
      ],
      "name": "createCampaign",
      "outputs": [
        {
          "internalType": "uint256",
          "name": "",
          "type": "uint256"
        }
      ],
      "stateMutability": "nonpayable",
      "type": "function"
    },
    {
      "inputs": [
        {
          "internalType": "uint256",
          "name": "_campaignId",
          "type": "uint256"
        }
      ],
      "name": "getCampaign",
      "outputs": [
        {
          "internalType": "address",
          "name": "creator",
          "type": "address"
        },
        {
          "internalType": "string",
          "name": "title",
          "type": "string"
        },
        {
          "internalType": "string",
          "name": "description",
          "type": "string"
        },
        {
          "internalType": "uint256",
          "name": "goal",
          "type": "uint256"
        },
        {
          "internalType": "uint256",
          "name": "deadline",
          "type": "uint256"
        },
        {
          "internalType": "uint256",
          "name": "amountRaised",
          "type": "uint256"
        },
        {
          "internalType": "bool",
          "name": "withdrawn",
          "type": "bool"
        }
      ],
      "stateMutability": "view",
      "type": "function"
    },
    {
      "inputs": [],
      "name": "getCampainCount",
      "outputs": [
        {
          "internalType": "uint256",
          "name": "",
          "type": "uint256"
        }
      ],
      "stateMutability": "view",
      "type": "function"
    },
    {
      "inputs": [
        {
          "internalType": "uint256",
          "name": "_campaignId",
          "type": "uint256"
        },
        {
          "internalType": "address",
          "name": "_contributor",
          "type": "address"
        }
      ],
      "name": "getContribution",
      "outputs": [
        {
          "internalType": "uint256",
          "name": "",
          "type": "uint256"
        }
      ],
      "stateMutability": "view",
      "type": "function"
    },
    {
      "inputs": [
        {
          "internalType": "uint256",
          "name": "_campaignId",
          "type": "uint256"
        }
      ],
      "name": "getContributorCount",
      "outputs": [
        {
          "internalType": "uint256",
          "name": "",
          "type": "uint256"
        }
      ],
      "stateMutability": "view",
      "type": "function"
    },
    {
      "inputs": [
        {
          "internalType": "uint256",
          "name": "_campaignId",
          "type": "uint256"
        }
      ],
      "name": "refund",
      "outputs": [],
      "stateMutability": "nonpayable",
      "type": "function"
    },
    {
      "inputs": [
        {
          "internalType": "uint256",
          "name": "_campaignId",
          "type": "uint256"
        }
      ],
      "name": "withdrawFunds",
      "outputs": [],
      "stateMutability": "nonpayable",
      "type": "function"
    }
  ],
  "bytecode": "0x6080604052348015600e575f5ffd5b506110348061001c5f395ff3fe60806040526004361061008f575f3560e01c80637274e30d116100575780637274e30d14610169578063a318f2691461017d578063c1cbbca71461019c578063e081dbf9146101af578063e880fbc1146101ce575f5ffd5b8063141961bc14610093578063155dd5ee146100ce57806319c5f695146100ef578063278ecde11461012b5780635598f8cc1461014a575b5f5ffd5b34801561009e575f5ffd5b506100b26100ad366004610c43565b6101e1565b6040516100c59796959493929190610c88565b60405180910390f35b3480156100d9575f5ffd5b506100ed6100e8366004610c43565b610336565b005b3480156100fa575f5ffd5b5061011d610109366004610c43565b5f9081526001602052604090206008015490565b6040519081526020016100c5565b348015610136575f5ffd5b506100ed610145366004610c43565b6105ac565b348015610155575f5ffd5b506100b2610164366004610c43565b6107b8565b348015610174575f5ffd5b5061011d5f5481565b348015610188575f5ffd5b5061011d610197366004610d85565b610940565b6100ed6101aa366004610c43565b610aaf565b3480156101ba575f5ffd5b5061011d6101c9366004610df9565b610c17565b3480156101d9575f5ffd5b505f5461011d565b600160208190525f9182526040909120805491810180546001600160a01b039093169261020d90610e32565b80601f016020809104026020016040519081016040528092919081815260200182805461023990610e32565b80156102845780601f1061025b57610100808354040283529160200191610284565b820191905f5260205f20905b81548152906001019060200180831161026757829003601f168201915b50505050509080600201805461029990610e32565b80601f01602080910402602001604051908101604052809291908181526020018280546102c590610e32565b80156103105780601f106102e757610100808354040283529160200191610310565b820191905f5260205f20905b8154815290600101906020018083116102f357829003601f168201915b505050506003830154600484015460058501546006909501549394919390925060ff1687565b5f81815260016020526040902080546001600160a01b031633146103b65760405162461bcd60e51b815260206004820152602c60248201527f4f6e6c79207468652063616d706169676e2063726561746f722063616e20776960448201526b7468647261772066756e647360a01b60648201526084015b60405180910390fd5b80600401544210156104065760405162461bcd60e51b815260206004820152601960248201527843616d706169676e206973207374696c6c206f6e676f696e6760381b60448201526064016103ad565b80600301548160050154101561045e5760405162461bcd60e51b815260206004820152601860248201527f46756e64696e6720676f616c206e6f742072656163686564000000000000000060448201526064016103ad565b600681015460ff16156104bd5760405162461bcd60e51b815260206004820152602160248201527f46756e6473206861766520616c7265616479206265656e2077697468647261776044820152603760f91b60648201526084016103ad565b60068101805460ff19166001179055600581015481546040515f916001600160a01b03169083908381818185875af1925050503d805f811461051a576040519150601f19603f3d011682016040523d82523d5f602084013e61051f565b606091505b50509050806105625760405162461bcd60e51b815260206004820152600f60248201526e151c985b9cd9995c8819985a5b1959608a1b60448201526064016103ad565b82546040518381526001600160a01b039091169085907ff440aec6b52895984d061d622e6edeba6210f7c3e059be920663140c084560d7906020015b60405180910390a350505050565b5f81815260016020526040902060048101544210156106095760405162461bcd60e51b815260206004820152601960248201527843616d706169676e206973207374696c6c206f6e676f696e6760381b60448201526064016103ad565b806003015481600501541061066c5760405162461bcd60e51b8152602060048201526024808201527f46756e64696e6720676f616c2077617320726561636865643b206e6f20726566604482015263756e647360e01b60648201526084016103ad565b335f908152600782016020526040902054806106ca5760405162461bcd60e51b815260206004820152601a60248201527f4e6f20636f6e747269627574696f6e7320746f20726566756e6400000000000060448201526064016103ad565b335f90815260078301602052604081208190556005830180548392906106f1908490610e7e565b90915550506040515f90339083908381818185875af1925050503d805f8114610735576040519150601f19603f3d011682016040523d82523d5f602084013e61073a565b606091505b50509050806107845760405162461bcd60e51b81526020600482015260166024820152751499599d5b99081d1c985b9cd9995c8819985a5b195960521b60448201526064016103ad565b604051828152339085907f7a482fdeb6bc9a1376f597068a214a7a39472bb2eff1b8cad21ba04f49ddca1b9060200161059e565b5f6060805f5f5f5f5f60015f8a81526020019081526020015f209050805f015f9054906101000a90046001600160a01b03168160010182600201836003015484600401548560050154866006015f9054906101000a900460ff1685805461081e90610e32565b80601f016020809104026020016040519081016040528092919081815260200182805461084a90610e32565b80156108955780601f1061086c57610100808354040283529160200191610895565b820191905f5260205f20905b81548152906001019060200180831161087857829003601f168201915b505050505095508480546108a890610e32565b80601f01602080910402602001604051908101604052809291908181526020018280546108d490610e32565b801561091f5780601f106108f65761010080835404028352916020019161091f565b820191905f5260205f20905b81548152906001019060200180831161090257829003601f168201915b50505050509450975097509750975097509750975050919395979092949650565b5f5f83116109905760405162461bcd60e51b815260206004820152601b60248201527f476f616c206d7573742062652067726561746572207468616e2030000000000060448201526064016103ad565b5f82116109df5760405162461bcd60e51b815260206004820152601f60248201527f4475726174696f6e206d7573742062652067726561746572207468616e20300060448201526064016103ad565b5f805481806109ed83610e91565b909155505f81815260016020819052604090912080546001600160a01b031916331781559192508101610a208882610ef5565b5060028101610a2f8782610ef5565b5060038101859055610a448462015180610fb0565b610a4e9042610fc7565b600482018190555f600583015560068201805460ff19169055604051339184917fdc26653af5b99b2da33e2ad69ee6600d9aeccc82b034501db4338309615ca23891610a9d918c918b91610fda565b60405180910390a35095945050505050565b5f81815260016020526040902060048101544210610b045760405162461bcd60e51b815260206004820152601260248201527110d85b5c185a59db881a185cc8195b99195960721b60448201526064016103ad565b5f3411610b5f5760405162461bcd60e51b815260206004820152602360248201527f436f6e747269627574696f6e206d75737420626520677265617465722074686160448201526206e20360ec1b60648201526084016103ad565b335f9081526007820160205260408120549003610b9d576008810180546001810182555f91825260209091200180546001600160a01b031916331790555b335f90815260078201602052604081208054349290610bbd908490610fc7565b9250508190555034816005015f828254610bd79190610fc7565b9091555050604051348152339083907f0a4a91237423e0a1766a761c7cb029311d8b95d6b1b81db1b949a70c98b4e08e9060200160405180910390a35050565b5f8281526001602090815260408083206001600160a01b03851684526007019091529020545b92915050565b5f60208284031215610c53575f5ffd5b5035919050565b5f81518084528060208401602086015e5f602082860101526020601f19601f83011685010191505092915050565b6001600160a01b038816815260e0602082018190525f90610cab90830189610c5a565b8281036040840152610cbd8189610c5a565b9150508560608301528460808301528360a083015282151560c083015298975050505050505050565b634e487b7160e01b5f52604160045260245ffd5b5f82601f830112610d09575f5ffd5b813567ffffffffffffffff811115610d2357610d23610ce6565b604051601f8201601f19908116603f0116810167ffffffffffffffff81118282101715610d5257610d52610ce6565b604052818152838201602001851015610d69575f5ffd5b816020850160208301375f918101602001919091529392505050565b5f5f5f5f60808587031215610d98575f5ffd5b843567ffffffffffffffff811115610dae575f5ffd5b610dba87828801610cfa565b945050602085013567ffffffffffffffff811115610dd6575f5ffd5b610de287828801610cfa565b949794965050505060408301359260600135919050565b5f5f60408385031215610e0a575f5ffd5b8235915060208301356001600160a01b0381168114610e27575f5ffd5b809150509250929050565b600181811c90821680610e4657607f821691505b602082108103610e6457634e487b7160e01b5f52602260045260245ffd5b50919050565b634e487b7160e01b5f52601160045260245ffd5b81810381811115610c3d57610c3d610e6a565b5f60018201610ea257610ea2610e6a565b5060010190565b601f821115610ef057805f5260205f20601f840160051c81016020851015610ece5750805b601f840160051c820191505b81811015610eed575f8155600101610eda565b50505b505050565b815167ffffffffffffffff811115610f0f57610f0f610ce6565b610f2381610f1d8454610e32565b84610ea9565b6020601f821160018114610f55575f8315610f3e5750848201515b5f19600385901b1c1916600184901b178455610eed565b5f84815260208120601f198516915b82811015610f845787850151825560209485019460019092019101610f64565b5084821015610fa157868401515f19600387901b60f8161c191681555b50505050600190811b01905550565b8082028115828204841417610c3d57610c3d610e6a565b80820180821115610c3d57610c3d610e6a565b606081525f610fec6060830186610c5a565b6020830194909452506040015291905056fea2646970667358221220e9a978f8d64beb8caa870c9062f441fcf39c410fc36e47da4c5757b14312c42e64736f6c634300081c0033",
  "linkReferences": {},
  "deployedLinkReferences": {},
  "immutableReferences": {},
  "inputSourceName": "project/contracts/CrowdFunding.sol",
  "buildInfoId": "solc-0_8_28-b25877475e3ef48c6e54e0cd4bb1f48d9eae32d5"
}